:040000004AEF00F0D3
:100008002582FACF07F0FBCF08F0E9CF09F0EACF55
:100018000AF0E1CF0BF0E2CF0CF0D9CF0DF0DACF38
:100028000EF0F3CF0FF0F4CF10F0F6CF11F0F7CFBA
:1000380012F0F8CF13F0F5CF14F0F2A409D084CF62
:1000480001F02450E3EC07F0246E224A232AF294AC
:1000580014C0F5FF13C0F8FF12C0F7FF11C0F6FF78
:1000680010C0F4FF0FC0F3FF0EC0DAFF0DC0D9FFB8
:100078000CC0E2FF0BC0E1FF0AC0EAFF09C0E9FFBC
:1000880008C0FBFF07C0FAFF25921100F8EF08F03F
:100E00000020202020202020202020202020202002
:100E1000202020202000202020202020455A2D772F
:100E200065656420202020202020002D0000156E04
:100E300023D0310E1DD0320E1BD0330E19D0460EEA
:100E400017D0340E15D0350E13D0360E11D0450EF6
:100E50000FD0370E0DD0380E0BD0390E09D0440EFE
:100E600007D0410E05D0300E03D0420E01D0430E04
:100E7000166E34D0166832D01550770AD8B4F7D72A
:100E80000C0AD8B4F2D7060AD8B4EDD7030AD8B4FE
:100E9000E8D7C90AD8B4E3D70C0AD8B4DED7060A13
:100EA000D8B4D9D7030AD8B4D4D7690AD8B4CFD71D
:100EB0000C0AD8B4CAD7060AD8B4C5D7030AD8B41E
:100EC000C0D7390AD8B4BBD70C0AD8B4B6D7060AEB
:100ED000D8B4B1D7030AD8B4ACD7CCD716501200C7
:100EE000000E1E6E000E1D6E1BD01D5019241B6EB1
:100EF0001E501A201C6E1BC0F6FF1CC0F7FF000E10
:100F0000F86E0D0EF76403D00800F55005D0F6CF4B
:100F1000E9FFF7CFEAFFEF509BEC08F01D4A1E2ACD
:100F20001D5019241B6E1E501A201C6E1BC0F6FF8C
:100F30001CC0F7FF000EF86E0D0EF76403D008001A
:100F4000F55005D0F6CFE9FFF7CFEAFFEF500009E3
:100F5000D8B41200CAD721682068000E1F6ED4ECE6
:100F600008F0B3EC08F0160E196E0E0E1A6E70EC47
:100F700007F0C4EC08F0000E176E000E186E010E9C
:100F80003AEC08F084CF1FF01F5017EC07F0216EE9
:100F90002128D8B40ED020502118D8B40AD021501E
:100FA0009BEC08F021C020F02168000E236E000E9B
:100FB000226E23BEE7D7235004E1110E225CD8A095
:100FC000E1D72068DFD7066E09D0010E05D0020EEA
:100FD00003D0030E01D0000E066E0DD00650000A9D
:100FE000D8B4F3D7010AD8B4F2D7030AD8B4F1D7EA
:100FF000010AD8B4F0D706C002F0010E036E022A2F
:1010000002D0D8900336022EFCD70350FF0A046E9C
:101010000150F00B0F09056E055004148D6E06503B
:101020001200176E17C015F00F0E1516153AF00EB8
:10103000151617380F0B0F0B1510176E17C015F07C
:10104000330E1516D8901536D89015361740E8424D
:101050003F0B330B1510176E17C015F0550E1516F4
:10106000D8901534166ED8901730550B1610176E91
:1010700017501200196E18C01AF0D8901A3617506F
:101080001A26D8901A3619501A26D8901A361A2AC3
:101090001A3AF00E1A16E2EC08F00009D8A4FBD7B1
:1010A0008C96F80EEFEC08F01A50EFEC08F0000EFA
:1010B000EFEC08F08C861200D3507009D36E95982F
:1010C00095949596958294908C8600F0560E156EA8
:1010D000B60EE82EFED7152EFCD7560E156EB60EA0
:1010E000E82EFED7152EFCD7560E156EB60EE82E3E
:1010F000FED7152EFCD712000E011E85F40E0E0130
:101100001E17050E0E011D13F50E0E011D17500EB4
:101110000E0130135F0E0E013017F10E0F0119177B
:10112000310E0F0119130F011A8F0F011A9D8F0E27
:101130000F0139171200186E185011EC08F0186ED4
:10114000E2EC08F00009D8A4FBD78C96FA0EEFEC7D
:1011500008F01850F00BEFEC08F01838F00BEFEC3B
:1011600008F08C861200E2EC08F00009D8A4FBD746
:101170008C96F80EEFEC08F0800EEFEC08F0000E05
:10118000EFEC08F08C861200F28ED58ED58CD550FF
:10119000CF0B1009D56ED596D550F80B0509D56E35
:1011A000F28AF00E966E12005CEC08F07CEC08F00F
:1011B000B3EC08F0010E176E000E186E010E3AEC3B
:1011C00008F012008C96FC0EEFEC08F0000EEFEC2D
:1011D00008F0166E8C8600D01650010B1200156EAA
:1011E00015C003FF0F011AA1FDD70F010351120013
:1011F000246A236A226A259025920001ABEF07F04A
:020000040001F9
:10FFF000E0F7AFFF33F0FFF703FFFFFF1DF0F8F36B
:00000001FF
